{
  "_format": "hh-sol-artifact-1",
  "contractName": "CrowdfundingPlatform",
  "sourceName": "contracts/CrowdfundingEscrow.sol",
  "abi": [
    {
      "inputs": [
        {
          "internalType": "address",
          "name": "_usdcToken",
          "type": "address"
        }
      ],
      "stateMutability": "nonpayable",
      "type": "constructor"
    },
    {
      "inputs": [
        {
          "internalType": "address",
          "name": "owner",
          "type": "address"
        }
      ],
      "name": "OwnableInvalidOwner",
      "type": "error"
    },
    {
      "inputs": [
        {
          "internalType": "address",
          "name": "account",
          "type": "address"
        }
      ],
      "name": "OwnableUnauthorizedAccount",
      "type": "error"
    },
    {
      "inputs": [],
      "name": "ReentrancyGuardReentrantCall",
      "type": "error"
    },
    {
      "anonymous": false,
      "inputs": [
        {
          "indexed": true,
          "internalType": "uint256",
          "name": "campaignId",
          "type": "uint256"
        },
        {
          "indexed": true,
          "internalType": "address",
          "name": "creator",
          "type": "address"
        }
      ],
      "name": "CampaignCancelled",
      "type": "event"
    },
    {
      "anonymous": false,
      "inputs": [
        {
          "indexed": true,
          "internalType": "uint256",
          "name": "campaignId",
          "type": "uint256"
        },
        {
          "indexed": true,
          "internalType": "address",
          "name": "creator",
          "type": "address"
        },
        {
          "indexed": false,
          "internalType": "string",
          "name": "name",
          "type": "string"
        },
        {
          "indexed": false,
          "internalType": "uint256",
          "name": "goal",
          "type": "uint256"
        },
        {
          "indexed": false,
          "internalType": "uint256",
          "name": "deadline",
          "type": "uint256"
        }
      ],
      "name": "CampaignCreated",
      "type": "event"
    },
    {
      "anonymous": false,
      "inputs": [
        {
          "indexed": true,
          "internalType": "uint256",
          "name": "campaignId",
          "type": "uint256"
        },
        {
          "indexed": true,
          "internalType": "address",
          "name": "creator",
          "type": "address"
        },
        {
          "indexed": false,
          "internalType": "uint256",
          "name": "amount",
          "type": "uint256"
        },
        {
          "indexed": false,
          "internalType": "uint256",
          "name": "platformFee",
          "type": "uint256"
        }
      ],
      "name": "Claimed",
      "type": "event"
    },
    {
      "anonymous": false,
      "inputs": [
        {
          "indexed": false,
          "internalType": "address",
          "name": "oldRecipient",
          "type": "address"
        },
        {
          "indexed": false,
          "internalType": "address",
          "name": "newRecipient",
          "type": "address"
        }
      ],
      "name": "FeeRecipientUpdated",
      "type": "event"
    },
    {
      "anonymous": false,
      "inputs": [
        {
          "indexed": true,
          "internalType": "address",
          "name": "previousOwner",
          "type": "address"
        },
        {
          "indexed": true,
          "internalType": "address",
          "name": "newOwner",
          "type": "address"
        }
      ],
      "name": "OwnershipTransferred",
      "type": "event"
    },
    {
      "anonymous": false,
      "inputs": [
        {
          "indexed": false,
          "internalType": "uint256",
          "name": "oldFee",
          "type": "uint256"
        },
        {
          "indexed": false,
          "internalType": "uint256",
          "name": "newFee",
          "type": "uint256"
        }
      ],
      "name": "PlatformFeeUpdated",
      "type": "event"
    },
    {
      "anonymous": false,
      "inputs": [
        {
          "indexed": true,
          "internalType": "uint256",
          "name": "campaignId",
          "type": "uint256"
        },
        {
          "indexed": true,
          "internalType": "address",
          "name": "backer",
          "type": "address"
        },
        {
          "indexed": false,
          "internalType": "uint256",
          "name": "amount",
          "type": "uint256"
        }
      ],
      "name": "Pledged",
      "type": "event"
    },
    {
      "anonymous": false,
      "inputs": [
        {
          "indexed": true,
          "internalType": "uint256",
          "name": "campaignId",
          "type": "uint256"
        },
        {
          "indexed": true,
          "internalType": "address",
          "name": "backer",
          "type": "address"
        },
        {
          "indexed": false,
          "internalType": "uint256",
          "name": "amount",
          "type": "uint256"
        }
      ],
      "name": "Refunded",
      "type": "event"
    },
    {
      "inputs": [],
      "name": "MAX_CAMPAIGN_DURATION",
      "outputs": [
        {
          "internalType": "uint256",
          "name": "",
          "type": "uint256"
        }
      ],
      "stateMutability": "view",
      "type": "function"
    },
    {
      "inputs": [],
      "name": "MIN_CAMPAIGN_GOAL",
      "outputs": [
        {
          "internalType": "uint256",
          "name": "",
          "type": "uint256"
        }
      ],
      "stateMutability": "view",
      "type": "function"
    },
    {
      "inputs": [],
      "name": "campaignCount",
      "outputs": [
        {
          "internalType": "uint256",
          "name": "",
          "type": "uint256"
        }
      ],
      "stateMutability": "view",
      "type": "function"
    },
    {
      "inputs": [
        {
          "internalType": "uint256",
          "name": "",
          "type": "uint256"
        }
      ],
      "name": "campaigns",
      "outputs": [
        {
          "internalType": "address",
          "name": "creator",
          "type": "address"
        },
        {
          "internalType": "string",
          "name": "name",
          "type": "string"
        },
        {
          "internalType": "string",
          "name": "description",
          "type": "string"
        },
        {
          "internalType": "uint256",
          "name": "goal",
          "type": "uint256"
        },
        {
          "internalType": "uint256",
          "name": "deadline",
          "type": "uint256"
        },
        {
          "internalType": "uint256",
          "name": "totalPledged",
          "type": "uint256"
        },
        {
          "internalType": "bool",
          "name": "goalReached",
          "type": "bool"
        },
        {
          "internalType": "bool",
          "name": "claimed",
          "type": "bool"
        },
        {
          "internalType": "bool",
          "name": "cancelled",
          "type": "bool"
        },
        {
          "internalType": "uint256",
          "name": "createdAt",
          "type": "uint256"
        }
      ],
      "stateMutability": "view",
      "type": "function"
    },
    {
      "inputs": [
        {
          "internalType": "uint256",
          "name": "_campaignId",
          "type": "uint256"
        }
      ],
      "name": "cancelCampaign",
      "outputs": [],
      "stateMutability": "nonpayable",
      "type": "function"
    },
    {
      "inputs": [
        {
          "internalType": "uint256",
          "name": "_campaignId",
          "type": "uint256"
        }
      ],
      "name": "claimFunds",
      "outputs": [],
      "stateMutability": "nonpayable",
      "type": "function"
    },
    {
      "inputs": [
        {
          "internalType": "string",
          "name": "_name",
          "type": "string"
        },
        {
          "internalType": "string",
          "name": "_description",
          "type": "string"
        },
        {
          "internalType": "uint256",
          "name": "_goal",
          "type": "uint256"
        },
        {
          "internalType": "uint256",
          "name": "_duration",
          "type": "uint256"
        }
      ],
      "name": "createCampaign",
      "outputs": [
        {
          "internalType": "uint256",
          "name": "",
          "type": "uint256"
        }
      ],
      "stateMutability": "nonpayable",
      "type": "function"
    },
    {
      "inputs": [],
      "name": "feeRecipient",
      "outputs": [
        {
          "internalType": "address",
          "name": "",
          "type": "address"
        }
      ],
      "stateMutability": "view",
      "type": "function"
    },
    {
      "inputs": [
        {
          "internalType": "uint256",
          "name": "_campaignId",
          "type": "uint256"
        }
      ],
      "name": "getCampaign",
      "outputs": [
        {
          "components": [
            {
              "internalType": "address",
              "name": "creator",
              "type": "address"
            },
            {
              "internalType": "string",
              "name": "name",
              "type": "string"
            },
            {
              "internalType": "string",
              "name": "description",
              "type": "string"
            },
            {
              "internalType": "uint256",
              "name": "goal",
              "type": "uint256"
            },
            {
              "internalType": "uint256",
              "name": "deadline",
              "type": "uint256"
            },
            {
              "internalType": "uint256",
              "name": "totalPledged",
              "type": "uint256"
            },
            {
              "internalType": "bool",
              "name": "goalReached",
              "type": "bool"
            },
            {
              "internalType": "bool",
              "name": "claimed",
              "type": "bool"
            },
            {
              "internalType": "bool",
              "name": "cancelled",
              "type": "bool"
            },
            {
              "internalType": "uint256",
              "name": "createdAt",
              "type": "uint256"
            }
          ],
          "internalType": "struct CrowdfundingPlatform.Campaign",
          "name": "",
          "type": "tuple"
        }
      ],
      "stateMutability": "view",
      "type": "function"
    },
    {
      "inputs": [
        {
          "internalType": "uint256",
          "name": "_campaignId",
          "type": "uint256"
        }
      ],
      "name": "getCampaignStatus",
      "outputs": [
        {
          "internalType": "uint256",
          "name": "totalPledged",
          "type": "uint256"
        },
        {
          "internalType": "uint256",
          "name": "goal",
          "type": "uint256"
        },
        {
          "internalType": "bool",
          "name": "goalReached",
          "type": "bool"
        },
        {
          "internalType": "uint256",
          "name": "deadline",
          "type": "uint256"
        },
        {
          "internalType": "bool",
          "name": "claimed",
          "type": "bool"
        },
        {
          "internalType": "bool",
          "name": "cancelled",
          "type": "bool"
        }
      ],
      "stateMutability": "view",
      "type": "function"
    },
    {
      "inputs": [],
      "name": "getPlatformInfo",
      "outputs": [
        {
          "internalType": "uint256",
          "name": "totalCampaigns",
          "type": "uint256"
        },
        {
          "internalType": "uint256",
          "name": "feePercent",
          "type": "uint256"
        },
        {
          "internalType": "address",
          "name": "feeRecipientAddr",
          "type": "address"
        },
        {
          "internalType": "uint256",
          "name": "minGoal",
          "type": "uint256"
        },
        {
          "internalType": "uint256",
          "name": "maxDuration",
          "type": "uint256"
        }
      ],
      "stateMutability": "view",
      "type": "function"
    },
    {
      "inputs": [
        {
          "internalType": "uint256",
          "name": "_campaignId",
          "type": "uint256"
        }
      ],
      "name": "getTimeRemaining",
      "outputs": [
        {
          "internalType": "uint256",
          "name": "",
          "type": "uint256"
        }
      ],
      "stateMutability": "view",
      "type": "function"
    },
    {
      "inputs": [
        {
          "internalType": "address",
          "name": "_user",
          "type": "address"
        }
      ],
      "name": "getUserCampaigns",
      "outputs": [
        {
          "internalType": "uint256[]",
          "name": "",
          "type": "uint256[]"
        }
      ],
      "stateMutability": "view",
      "type": "function"
    },
    {
      "inputs": [
        {
          "internalType": "uint256",
          "name": "_campaignId",
          "type": "uint256"
        },
        {
          "internalType": "address",
          "name": "_user",
          "type": "address"
        }
      ],
      "name": "getUserPledge",
      "outputs": [
        {
          "internalType": "uint256",
          "name": "",
          "type": "uint256"
        }
      ],
      "stateMutability": "view",
      "type": "function"
    },
    {
      "inputs": [
        {
          "internalType": "address",
          "name": "_user",
          "type": "address"
        }
      ],
      "name": "getUserPledges",
      "outputs": [
        {
          "internalType": "uint256[]",
          "name": "",
          "type": "uint256[]"
        }
      ],
      "stateMutability": "view",
      "type": "function"
    },
    {
      "inputs": [],
      "name": "owner",
      "outputs": [
        {
          "internalType": "address",
          "name": "",
          "type": "address"
        }
      ],
      "stateMutability": "view",
      "type": "function"
    },
    {
      "inputs": [],
      "name": "platformFeePercent",
      "outputs": [
        {
          "internalType": "uint256",
          "name": "",
          "type": "uint256"
        }
      ],
      "stateMutability": "view",
      "type": "function"
    },
    {
      "inputs": [
        {
          "internalType": "uint256",
          "name": "_campaignId",
          "type": "uint256"
        },
        {
          "internalType": "uint256",
          "name": "_amount",
          "type": "uint256"
        }
      ],
      "name": "pledge",
      "outputs": [],
      "stateMutability": "nonpayable",
      "type": "function"
    },
    {
      "inputs": [
        {
          "internalType": "uint256",
          "name": "",
          "type": "uint256"
        },
        {
          "internalType": "address",
          "name": "",
          "type": "address"
        }
      ],
      "name": "pledges",
      "outputs": [
        {
          "internalType": "uint256",
          "name": "",
          "type": "uint256"
        }
      ],
      "stateMutability": "view",
      "type": "function"
    },
    {
      "inputs": [
        {
          "internalType": "uint256",
          "name": "_campaignId",
          "type": "uint256"
        }
      ],
      "name": "refund",
      "outputs": [],
      "stateMutability": "nonpayable",
      "type": "function"
    },
    {
      "inputs": [],
      "name": "renounceOwnership",
      "outputs": [],
      "stateMutability": "nonpayable",
      "type": "function"
    },
    {
      "inputs": [
        {
          "internalType": "address",
          "name": "_feeRecipient",
          "type": "address"
        }
      ],
      "name": "setFeeRecipient",
      "outputs": [],
      "stateMutability": "nonpayable",
      "type": "function"
    },
    {
      "inputs": [
        {
          "internalType": "uint256",
          "name": "_feePercent",
          "type": "uint256"
        }
      ],
      "name": "setPlatformFee",
      "outputs": [],
      "stateMutability": "nonpayable",
      "type": "function"
    },
    {
      "inputs": [
        {
          "internalType": "address",
          "name": "newOwner",
          "type": "address"
        }
      ],
      "name": "transferOwnership",
      "outputs": [],
      "stateMutability": "nonpayable",
      "type": "function"
    },
    {
      "inputs": [],
      "name": "usdcToken",
      "outputs": [
        {
          "internalType": "contract IERC20",
          "name": "",
          "type": "address"
        }
      ],
      "stateMutability": "view",
      "type": "function"
    },
    {
      "inputs": [
        {
          "internalType": "address",
          "name": "",
          "type": "address"
        },
        {
          "internalType": "uint256",
          "name": "",
          "type": "uint256"
        }
      ],
      "name": "userCampaigns",
      "outputs": [
        {
          "internalType": "uint256",
          "name": "",
          "type": "uint256"
        }
      ],
      "stateMutability": "view",
      "type": "function"
    },
    {
      "inputs": [
        {
          "internalType": "address",
          "name": "",
          "type": "address"
        },
        {
          "internalType": "uint256",
          "name": "",
          "type": "uint256"
        }
      ],
      "name": "userPledges",
      "outputs": [
        {
          "internalType": "uint256",
          "name": "",
          "type": "uint256"
        }
      ],
      "stateMutability": "view",
      "type": "function"
    }
  ],
  "bytecode": "0x608060405260fa6004553480156200001657600080fd5b5060405162001f5938038062001f598339810160408190526200003991620000f2565b600160005533806200006557604051631e4fbdf760e01b81526000600482015260240160405180910390fd5b6200007081620000a0565b50600280546001600160a01b039092166001600160a01b0319928316179055600580549091163317905562000124565b600180546001600160a01b038381166001600160a01b0319831681179093556040519116919082907f8be0079c531659141344cd1fd0a4f28419497f9722a3daafe3b4186f6b6457e090600090a35050565b6000602082840312156200010557600080fd5b81516001600160a01b03811681146200011d57600080fd5b9392505050565b611e2580620001346000396000f3fe608060405234801561001057600080fd5b50600436106101a95760003560e01c80637274e30d116100f9578063a01a633d11610097578063e0d99f6911610071578063e0d99f6914610447578063e74b981b1461045a578063f2fde38b1461046d578063fde327be1461048057600080fd5b8063a01a633d14610416578063a1e5084c14610421578063a318f2691461043457600080fd5b80638c7bc838116100d35780638c7bc838146103bc5780638cd42991146103c75780638da5cb5b146103da5780638e97f524146103eb57600080fd5b80637274e30d14610369578063776187ab146103725780638c639a85146103b357600080fd5b8063278ecde111610166578063469048401161014057806346904840146102a95780635598f8cc146102bc5780636c19e004146102dc578063715018a61461036157600080fd5b8063278ecde1146102705780632afd3d1c1461028357806345598b4a1461029657600080fd5b806311eac855146101ae57806312e8e2c3146101de578063141961bc146101f357806318ea71cf1461021c57806319ac74bd1461023c5780631b55e3381461025d575b600080fd5b6002546101c1906001600160a01b031681565b6040516001600160a01b0390911681526020015b60405180910390f35b6101f16101ec36600461182b565b610493565b005b61020661020136600461182b565b610530565b6040516101d59a9998979695949392919061188a565b61022f61022a36600461191e565b6106a4565b6040516101d59190611939565b61024f61024a36600461197d565b610710565b6040519081526020016101d5565b6101f161026b36600461182b565b610741565b6101f161027e36600461182b565b610a5f565b61024f6102913660046119a7565b610c5e565b6101f16102a436600461182b565b610c88565b6005546101c1906001600160a01b031681565b6102cf6102ca36600461182b565b610e61565b6040516101d591906119d3565b61032c6102ea36600461182b565b60009081526006602081905260409091206005810154600382015492820154600490920154909360ff8084169361010081048216926201000090910490911690565b6040805196875260208701959095529215159385019390935260608401529015156080830152151560a082015260c0016101d5565b6101f1611074565b61024f60035481565b6003546004546005546040805193845260208401929092526001600160a01b0316908201526305f5e10060608201526301e13380608082015260a0016101d5565b61024f60045481565b61024f6301e1338081565b61024f6103d536600461182b565b611088565b6001546001600160a01b03166101c1565b61024f6103f93660046119a7565b600760209081526000928352604080842090915290825290205481565b61024f6305f5e10081565b61022f61042f36600461191e565b6110c1565b61024f610442366004611b3b565b61112b565b61024f61045536600461197d565b611411565b6101f161046836600461191e565b61142d565b6101f161047b36600461191e565b6114dd565b6101f161048e366004611baf565b611518565b61049b611782565b6103e88111156104ea5760405162461bcd60e51b81526020600482015260156024820152744665652063616e6e6f74206578636565642031302560581b60448201526064015b60405180910390fd5b600480549082905560408051828152602081018490527fd347e206f25a89b917fc9482f1a2d294d749baa4dc9bde7fb495ee11fe49164391015b60405180910390a15050565b600660205260009081526040902080546001820180546001600160a01b03909216929161055c90611bd1565b80601f016020809104026020016040519081016040528092919081815260200182805461058890611bd1565b80156105d55780601f106105aa576101008083540402835291602001916105d5565b820191906000526020600020905b8154815290600101906020018083116105b857829003601f168201915b5050505050908060020180546105ea90611bd1565b80601f016020809104026020016040519081016040528092919081815260200182805461061690611bd1565b80156106635780601f1061063857610100808354040283529160200191610663565b820191906000526020600020905b81548152906001019060200180831161064657829003601f168201915b505050506003830154600484015460058501546006860154600790960154949592949193509160ff808216926101008304821692620100009004909116908a565b6001600160a01b03811660009081526009602090815260409182902080548351818402810184019094528084526060939283018282801561070457602002820191906000526020600020905b8154815260200190600101908083116106f0575b50505050509050919050565b6008602052816000526040600020818154811061072c57600080fd5b90600052602060002001600091509150505481565b6107496117af565b600081815260066020526040902080546001600160a01b031633146107a75760405162461bcd60e51b81526020600482015260146024820152732737ba1031b0b6b830b4b3b71031b932b0ba37b960611b60448201526064016104e1565b80600401544210156107f35760405162461bcd60e51b815260206004820152601560248201527443616d706169676e207374696c6c2061637469766560581b60448201526064016104e1565b600681015460ff1661083a5760405162461bcd60e51b815260206004820152601060248201526f11dbd85b081b9bdd081c995858da195960821b60448201526064016104e1565b6006810154610100900460ff16156108865760405162461bcd60e51b815260206004820152600f60248201526e105b1c9958591e4818db185a5b5959608a1b60448201526064016104e1565b600681015462010000900460ff16156108d65760405162461bcd60e51b815260206004820152601260248201527110d85b5c185a59db8818d85b98d95b1b195960721b60448201526064016104e1565b60068101805461ff0019166101001790556005810154600454600090612710906109009084611c21565b61090a9190611c38565b905060006109188284611c5a565b9050811561099b5760025460055460405163a9059cbb60e01b81526001600160a01b0391821660048201526024810185905291169063a9059cbb906044016020604051808303816000875af1158015610975573d6000803e3d6000fd5b505050506040513d601f19601f820116820180604052508101906109999190611c6d565b505b60025460405163a9059cbb60e01b8152336004820152602481018390526001600160a01b039091169063a9059cbb906044016020604051808303816000875af11580156109ec573d6000803e3d6000fd5b505050506040513d601f19601f82011682018060405250810190610a109190611c6d565b506040805182815260208101849052339187917fd9cb1e2714d65a111c0f20f060176ad657496bd47a3de04ec7c3d4ca232112ac910160405180910390a350505050610a5c6001600055565b50565b610a676117af565b60008181526006602052604090206004810154421015610ac15760405162461bcd60e51b815260206004820152601560248201527443616d706169676e207374696c6c2061637469766560581b60448201526064016104e1565b600681015460ff161580610adf5750600681015462010000900460ff165b610b2b5760405162461bcd60e51b815260206004820152601860248201527f476f616c20726561636865642c206e6f20726566756e6473000000000000000060448201526064016104e1565b6000828152600760209081526040808320338452909152902054610b875760405162461bcd60e51b8152602060048201526013602482015272139bc81c1b195919d9481d1bc81c99599d5b99606a1b60448201526064016104e1565b60008281526007602090815260408083203380855292528083208054939055600254905163a9059cbb60e01b81526004810192909252602482018390526001600160a01b03169063a9059cbb906044016020604051808303816000875af1158015610bf6573d6000803e3d6000fd5b505050506040513d601f19601f82011682018060405250810190610c1a9190611c6d565b50604051818152339084907f7ca5472b7ea78c2c0141c5a12ee6d170cf4ce8ed06be3d22c8252ddfc7a6a2c49060200160405180910390a35050610a5c6001600055565b60008281526007602090815260408083206001600160a01b03851684529091529020545b92915050565b610c906117af565b600081815260066020526040902080546001600160a01b03163314610cee5760405162461bcd60e51b81526020600482015260146024820152732737ba1031b0b6b830b4b3b71031b932b0ba37b960611b60448201526064016104e1565b600681015462010000900460ff1615610d3d5760405162461bcd60e51b8152602060048201526011602482015270105b1c9958591e4818d85b98d95b1b1959607a1b60448201526064016104e1565b6006810154610100900460ff1615610d895760405162461bcd60e51b815260206004820152600f60248201526e105b1c9958591e4818db185a5b5959608a1b60448201526064016104e1565b600581015415610dd25760405162461bcd60e51b815260206004820152601460248201527343616d706169676e2068617320706c656467657360601b60448201526064016104e1565b80600401544210610e165760405162461bcd60e51b815260206004820152600e60248201526d10d85b5c185a59db88195b99195960921b60448201526064016104e1565b60068101805462ff0000191662010000179055604051339083907f844c792f3d122ddfe76f9173cd5b48de3087f78395e0f62b94f9d471c991dcb290600090a350610a5c6001600055565b610ec660405180610140016040528060006001600160a01b031681526020016060815260200160608152602001600081526020016000815260200160008152602001600015158152602001600015158152602001600015158152602001600081525090565b6000828152600660209081526040918290208251610140810190935280546001600160a01b031683526001810180549192840191610f0390611bd1565b80601f0160208091040260200160405190810160405280929190818152602001828054610f2f90611bd1565b8015610f7c5780601f10610f5157610100808354040283529160200191610f7c565b820191906000526020600020905b815481529060010190602001808311610f5f57829003601f168201915b50505050508152602001600282018054610f9590611bd1565b80601f0160208091040260200160405190810160405280929190818152602001828054610fc190611bd1565b801561100e5780601f10610fe35761010080835404028352916020019161100e565b820191906000526020600020905b815481529060010190602001808311610ff157829003601f168201915b5050509183525050600382015460208201526004820154604082015260058201546060820152600682015460ff8082161515608084015261010082048116151560a08401526201000090910416151560c082015260079091015460e09091015292915050565b61107c611782565b61108660006117d9565b565b6000818152600660205260408120600481015442106110aa5750600092915050565b4281600401546110ba9190611c5a565b9392505050565b6001600160a01b03811660009081526008602090815260409182902080548351818402810184019094528084526060939283018282801561070457602002820191906000526020600020908154815260200190600101908083116106f05750505050509050919050565b6000808551116111765760405162461bcd60e51b815260206004820152601660248201527510d85b5c185a59db881b985b59481c995c5d5a5c995960521b60448201526064016104e1565b60008451116111c75760405162461bcd60e51b815260206004820152601d60248201527f43616d706169676e206465736372697074696f6e20726571756972656400000060448201526064016104e1565b6305f5e10083101561120a5760405162461bcd60e51b815260206004820152600c60248201526b476f616c20746f6f206c6f7760a01b60448201526064016104e1565b60008211801561121e57506301e133808211155b61125d5760405162461bcd60e51b815260206004820152601060248201526f24b73b30b634b210323ab930ba34b7b760811b60448201526064016104e1565b6003805490600061126d83611c8f565b909155506000905061127f8342611ca8565b604080516101408101825233815260208082018a81528284018a90526060830189905260808301859052600060a0840181905260c0840181905260e0840181905261010084018190524261012085015260035481526006909252929020815181546001600160a01b0319166001600160a01b03909116178155915192935091600182019061130d9082611d0a565b50604082015160028201906113229082611d0a565b5060608201516003828101919091556080830151600483015560a0830151600583015560c083015160068301805460e08601516101008088015161ffff1990931694151561ff001916949094179015159093029290921762ff00001916620100009215159290920291909117905561012090920151600790910155336000818152600860209081526040808320855481546001810183559185529290932090920155915491519091907fdc26653af5b99b2da33e2ad69ee6600d9aeccc82b034501db4338309615ca238906113fc908a9089908790611dca565b60405180910390a35050600354949350505050565b6009602052816000526040600020818154811061072c57600080fd5b611435611782565b6001600160a01b0381166114835760405162461bcd60e51b8152602060048201526015602482015274125b9d985b1a5908199959481c9958da5c1a595b9d605a1b60448201526064016104e1565b600580546001600160a01b038381166001600160a01b031983168117909355604080519190921680825260208201939093527faaebcf1bfa00580e41d966056b48521fa9f202645c86d4ddf28113e617c1b1d39101610524565b6114e5611782565b6001600160a01b03811661150f57604051631e4fbdf760e01b8152600060048201526024016104e1565b610a5c816117d9565b6115206117af565b60008281526006602081905260409091209081015462010000900460ff16156115805760405162461bcd60e51b815260206004820152601260248201527110d85b5c185a59db8818d85b98d95b1b195960721b60448201526064016104e1565b806004015442106115c45760405162461bcd60e51b815260206004820152600e60248201526d10d85b5c185a59db88195b99195960921b60448201526064016104e1565b600082116116145760405162461bcd60e51b815260206004820152601d60248201527f416d6f756e74206d7573742062652067726561746572207468616e203000000060448201526064016104e1565b6002546040516323b872dd60e01b8152336004820152306024820152604481018490526001600160a01b03909116906323b872dd906064016020604051808303816000875af115801561166b573d6000803e3d6000fd5b505050506040513d601f19601f8201168201806040525081019061168f9190611c6d565b506000838152600760209081526040808320338452909152812080548492906116b9908490611ca8565b92505081905550818160050160008282546116d49190611ca8565b9091555050600083815260076020908152604080832033845290915290205482900361171d57336000908152600960209081526040822080546001810182559083529120018390555b806003015481600501541061173c5760068101805460ff191660011790555b604051828152339084907f2757ac6a40883f4491cc56930ae964df9034e343e660d5179eb01e198336756b9060200160405180910390a35061177e6001600055565b5050565b6001546001600160a01b031633146110865760405163118cdaa760e01b81523360048201526024016104e1565b6002600054036117d257604051633ee5aeb560e01b815260040160405180910390fd5b6002600055565b600180546001600160a01b038381166001600160a01b0319831681179093556040519116919082907f8be0079c531659141344cd1fd0a4f28419497f9722a3daafe3b4186f6b6457e090600090a35050565b60006020828403121561183d57600080fd5b5035919050565b6000815180845260005b8181101561186a5760208185018101518683018201520161184e565b506000602082860101526020601f19601f83011685010191505092915050565b6001600160a01b038b168152610140602082018190526000906118af8382018d611844565b905082810360408401526118c3818c611844565b606084019a909a525050608081019690965260a086019490945291151560c0850152151560e08401521515610100830152610120909101529392505050565b80356001600160a01b038116811461191957600080fd5b919050565b60006020828403121561193057600080fd5b6110ba82611902565b6020808252825182820181905260009190848201906040850190845b8181101561197157835183529284019291840191600101611955565b50909695505050505050565b6000806040838503121561199057600080fd5b61199983611902565b946020939093013593505050565b600080604083850312156119ba57600080fd5b823591506119ca60208401611902565b90509250929050565b602081526119ed6020820183516001600160a01b03169052565b60006020830151610140806040850152611a0b610160850183611844565b91506040850151601f19858403016060860152611a288382611844565b92505060608501516080850152608085015160a085015260a085015160c085015260c0850151611a5c60e086018215159052565b5060e0850151610100611a728187018315159052565b8601519050610120611a878682018315159052565b959095015193019290925250919050565b634e487b7160e01b600052604160045260246000fd5b600082601f830112611abf57600080fd5b813567ffffffffffffffff80821115611ada57611ada611a98565b604051601f8301601f19908116603f01168101908282118183101715611b0257611b02611a98565b81604052838152866020858801011115611b1b57600080fd5b836020870160208301376000602085830101528094505050505092915050565b60008060008060808587031215611b5157600080fd5b843567ffffffffffffffff80821115611b6957600080fd5b611b7588838901611aae565b95506020870135915080821115611b8b57600080fd5b50611b9887828801611aae565b949794965050505060408301359260600135919050565b60008060408385031215611bc257600080fd5b50508035926020909101359150565b600181811c90821680611be557607f821691505b602082108103611c0557634e487b7160e01b600052602260045260246000fd5b50919050565b634e487b7160e01b600052601160045260246000fd5b8082028115828204841417610c8257610c82611c0b565b600082611c5557634e487b7160e01b600052601260045260246000fd5b500490565b81810381811115610c8257610c82611c0b565b600060208284031215611c7f57600080fd5b815180151581146110ba57600080fd5b600060018201611ca157611ca1611c0b565b5060010190565b80820180821115610c8257610c82611c0b565b601f821115611d0557600081815260208120601f850160051c81016020861015611ce25750805b601f850160051c820191505b81811015611d0157828155600101611cee565b5050505b505050565b815167ffffffffffffffff811115611d2457611d24611a98565b611d3881611d328454611bd1565b84611cbb565b602080601f831160018114611d6d5760008415611d555750858301515b600019600386901b1c1916600185901b178555611d01565b600085815260208120601f198616915b82811015611d9c57888601518255948401946001909101908401611d7d565b5085821015611dba5787850151600019600388901b60f8161c191681555b5050505050600190811b01905550565b606081526000611ddd6060830186611844565b6020830194909452506040015291905056fea26469706673582212201b2a96aa372f650666ce01bcd4f2c38e36500c9db1f38585ea14addce0c62a4864736f6c63430008140033",
  "linkReferences": {},
  "deployedLinkReferences": {}
}